{
  "contractName": "INRCToken",
  "abi": [
    {
      "inputs": [],
      "stateMutability": "nonpayable",
      "type": "constructor"
    },
    {
      "inputs": [],
      "name": "AddingOwnAddress",
      "type": "error"
    },
    {
      "inputs": [],
      "name": "InsufficientBalanceToRedeem",
      "type": "error"
    },
    {
      "inputs": [],
      "name": "InvalidExchangeToken",
      "type": "error"
    },
    {
      "inputs": [],
      "name": "LowBalanceInContract",
      "type": "error"
    },
    {
      "inputs": [],
      "name": "LowExchangeTokenBalance",
      "type": "error"
    },
    {
      "inputs": [],
      "name": "MintToZeroAddress",
      "type": "error"
    },
    {
      "inputs": [],
      "name": "MintZeroQuantity",
      "type": "error"
    },
    {
      "inputs": [],
      "name": "RedeemToZeroAddress",
      "type": "error"
    },
    {
      "inputs": [],
      "name": "RedeemZeroQuantity",
      "type": "error"
    },
    {
      "anonymous": false,
      "inputs": [
        {
          "indexed": true,
          "internalType": "address",
          "name": "owner",
          "type": "address"
        },
        {
          "indexed": true,
          "internalType": "address",
          "name": "spender",
          "type": "address"
        },
        {
          "indexed": false,
          "internalType": "uint256",
          "name": "value",
          "type": "uint256"
        }
      ],
      "name": "Approval",
      "type": "event"
    },
    {
      "anonymous": false,
      "inputs": [
        {
          "indexed": true,
          "internalType": "address",
          "name": "previousOwner",
          "type": "address"
        },
        {
          "indexed": true,
          "internalType": "address",
          "name": "newOwner",
          "type": "address"
        }
      ],
      "name": "OwnershipTransferred",
      "type": "event"
    },
    {
      "anonymous": false,
      "inputs": [
        {
          "indexed": true,
          "internalType": "address",
          "name": "from",
          "type": "address"
        },
        {
          "indexed": true,
          "internalType": "address",
          "name": "to",
          "type": "address"
        },
        {
          "indexed": false,
          "internalType": "uint256",
          "name": "value",
          "type": "uint256"
        }
      ],
      "name": "Transfer",
      "type": "event"
    },
    {
      "inputs": [
        {
          "internalType": "address",
          "name": "owner",
          "type": "address"
        },
        {
          "internalType": "address",
          "name": "spender",
          "type": "address"
        }
      ],
      "name": "allowance",
      "outputs": [
        {
          "internalType": "uint256",
          "name": "",
          "type": "uint256"
        }
      ],
      "stateMutability": "view",
      "type": "function",
      "constant": true
    },
    {
      "inputs": [
        {
          "internalType": "address",
          "name": "spender",
          "type": "address"
        },
        {
          "internalType": "uint256",
          "name": "amount",
          "type": "uint256"
        }
      ],
      "name": "approve",
      "outputs": [
        {
          "internalType": "bool",
          "name": "",
          "type": "bool"
        }
      ],
      "stateMutability": "nonpayable",
      "type": "function"
    },
    {
      "inputs": [
        {
          "internalType": "address",
          "name": "account",
          "type": "address"
        }
      ],
      "name": "balanceOf",
      "outputs": [
        {
          "internalType": "uint256",
          "name": "",
          "type": "uint256"
        }
      ],
      "stateMutability": "view",
      "type": "function",
      "constant": true
    },
    {
      "inputs": [],
      "name": "decimals",
      "outputs": [
        {
          "internalType": "uint8",
          "name": "",
          "type": "uint8"
        }
      ],
      "stateMutability": "view",
      "type": "function",
      "constant": true
    },
    {
      "inputs": [
        {
          "internalType": "address",
          "name": "spender",
          "type": "address"
        },
        {
          "internalType": "uint256",
          "name": "subtractedValue",
          "type": "uint256"
        }
      ],
      "name": "decreaseAllowance",
      "outputs": [
        {
          "internalType": "bool",
          "name": "",
          "type": "bool"
        }
      ],
      "stateMutability": "nonpayable",
      "type": "function"
    },
    {
      "inputs": [
        {
          "internalType": "string",
          "name": "",
          "type": "string"
        }
      ],
      "name": "exchangeTokens",
      "outputs": [
        {
          "internalType": "address",
          "name": "",
          "type": "address"
        }
      ],
      "stateMutability": "view",
      "type": "function",
      "constant": true
    },
    {
      "inputs": [
        {
          "internalType": "address",
          "name": "spender",
          "type": "address"
        },
        {
          "internalType": "uint256",
          "name": "addedValue",
          "type": "uint256"
        }
      ],
      "name": "increaseAllowance",
      "outputs": [
        {
          "internalType": "bool",
          "name": "",
          "type": "bool"
        }
      ],
      "stateMutability": "nonpayable",
      "type": "function"
    },
    {
      "inputs": [],
      "name": "name",
      "outputs": [
        {
          "internalType": "string",
          "name": "",
          "type": "string"
        }
      ],
      "stateMutability": "view",
      "type": "function",
      "constant": true
    },
    {
      "inputs": [],
      "name": "owner",
      "outputs": [
        {
          "internalType": "address",
          "name": "",
          "type": "address"
        }
      ],
      "stateMutability": "view",
      "type": "function",
      "constant": true
    },
    {
      "inputs": [],
      "name": "renounceOwnership",
      "outputs": [],
      "stateMutability": "nonpayable",
      "type": "function"
    },
    {
      "inputs": [],
      "name": "symbol",
      "outputs": [
        {
          "internalType": "string",
          "name": "",
          "type": "string"
        }
      ],
      "stateMutability": "view",
      "type": "function",
      "constant": true
    },
    {
      "inputs": [],
      "name": "totalSupply",
      "outputs": [
        {
          "internalType": "uint256",
          "name": "",
          "type": "uint256"
        }
      ],
      "stateMutability": "view",
      "type": "function",
      "constant": true
    },
    {
      "inputs": [
        {
          "internalType": "address",
          "name": "to",
          "type": "address"
        },
        {
          "internalType": "uint256",
          "name": "amount",
          "type": "uint256"
        }
      ],
      "name": "transfer",
      "outputs": [
        {
          "internalType": "bool",
          "name": "",
          "type": "bool"
        }
      ],
      "stateMutability": "nonpayable",
      "type": "function"
    },
    {
      "inputs": [
        {
          "internalType": "address",
          "name": "from",
          "type": "address"
        },
        {
          "internalType": "address",
          "name": "to",
          "type": "address"
        },
        {
          "internalType": "uint256",
          "name": "amount",
          "type": "uint256"
        }
      ],
      "name": "transferFrom",
      "outputs": [
        {
          "internalType": "bool",
          "name": "",
          "type": "bool"
        }
      ],
      "stateMutability": "nonpayable",
      "type": "function"
    },
    {
      "inputs": [
        {
          "internalType": "address",
          "name": "newOwner",
          "type": "address"
        }
      ],
      "name": "transferOwnership",
      "outputs": [],
      "stateMutability": "nonpayable",
      "type": "function"
    },
    {
      "inputs": [
        {
          "internalType": "address",
          "name": "to",
          "type": "address"
        },
        {
          "internalType": "uint256",
          "name": "amount",
          "type": "uint256"
        }
      ],
      "name": "mint",
      "outputs": [],
      "stateMutability": "nonpayable",
      "type": "function"
    },
    {
      "inputs": [
        {
          "internalType": "string",
          "name": "exchangeTokenName",
          "type": "string"
        },
        {
          "internalType": "address",
          "name": "exchangeTokenAddress",
          "type": "address"
        }
      ],
      "name": "addExchangeToken",
      "outputs": [],
      "stateMutability": "nonpayable",
      "type": "function"
    },
    {
      "inputs": [
        {
          "internalType": "string",
          "name": "exchangeTokenName",
          "type": "string"
        },
        {
          "internalType": "uint256",
          "name": "exchangeAmount",
          "type": "uint256"
        }
      ],
      "name": "buy",
      "outputs": [],
      "stateMutability": "nonpayable",
      "type": "function"
    },
    {
      "inputs": [
        {
          "internalType": "string",
          "name": "exchangeTokenName",
          "type": "string"
        },
        {
          "internalType": "uint256",
          "name": "inrcAmount",
          "type": "uint256"
        }
      ],
      "name": "redeem",
      "outputs": [],
      "stateMutability": "nonpayable",
      "type": "function"
    }
  ],
  "bytecode": "0x60806040523480156200001157600080fd5b50604080518082018252600981526824a72921aa37b5b2b760b91b602080830191825283518085019094526004845263494e524360e01b9084015281519192916200005f91600391620000f3565b50805162000075906004906020840190620000f3565b505050620000926200008c6200009d60201b60201c565b620000a1565b6001600655620001d6565b3390565b600580546001600160a01b038381166001600160a01b0319831681179093556040519116919082907f8be0079c531659141344cd1fd0a4f28419497f9722a3daafe3b4186f6b6457e090600090a35050565b828054620001019062000199565b90600052602060002090601f01602090048101928262000125576000855562000170565b82601f106200014057805160ff191683800117855562000170565b8280016001018555821562000170579182015b828111156200017057825182559160200191906001019062000153565b506200017e92915062000182565b5090565b5b808211156200017e576000815560010162000183565b600181811c90821680620001ae57607f821691505b60208210811415620001d057634e487b7160e01b600052602260045260246000fd5b50919050565b6115d380620001e66000396000f3fe608060405234801561001057600080fd5b50600436106101215760003560e01c806370a08231116100ad578063a9059cbb11610071578063a9059cbb1461027f578063b1b86b1314610292578063dd62ed3e146102a5578063f2fde38b146102b8578063f53dba5b146102cb57600080fd5b806370a0823114610222578063715018a61461024b5780638da5cb5b1461025357806395d89b4114610264578063a457c2d71461026c57600080fd5b806318160ddd116100f457806318160ddd146101c857806323b872dd146101da578063313ce567146101ed57806339509351146101fc57806340c10f191461020f57600080fd5b806306fdde0314610126578063095ea7b3146101445780630ca5c5041461016757806316560bcd1461017c575b600080fd5b61012e6102de565b60405161013b9190611106565b60405180910390f35b610157610152366004611155565b610370565b604051901515815260200161013b565b61017a610175366004611222565b61038a565b005b6101b061018a366004611267565b80516020818301810180516008825292820191909301209152546001600160a01b031681565b6040516001600160a01b03909116815260200161013b565b6002545b60405190815260200161013b565b6101576101e83660046112a4565b610623565b6040516012815260200161013b565b61015761020a366004611155565b610647565b61017a61021d366004611155565b610669565b6101cc6102303660046112e0565b6001600160a01b031660009081526020819052604090205490565b61017a61067f565b6005546001600160a01b03166101b0565b61012e610693565b61015761027a366004611155565b6106a2565b61015761028d366004611155565b610722565b61017a6102a0366004611222565b610730565b6101cc6102b3366004611302565b610ac9565b61017a6102c63660046112e0565b610af4565b61017a6102d9366004611335565b610b6d565b6060600380546102ed9061137a565b80601f01602080910402602001604051908101604052809291908181526020018280546103199061137a565b80156103665780601f1061033b57610100808354040283529160200191610366565b820191906000526020600020905b81548152906001019060200180831161034957829003601f168201915b5050505050905090565b60003361037e818585610be3565b60019150505b92915050565b33816103a95760405163b562e8dd60e01b815260040160405180910390fd5b336103c657604051622e076360e81b815260040160405180910390fd5b60006008846040516103d891906113b5565b908152604051908190036020019020546001600160a01b0316905080610411576040516309d3dbeb60e21b815260040160405180910390fd5b600780546001600160a01b0319166001600160a01b038381169182179092556040516370a0823160e01b815291841660048301526000916370a0823190602401602060405180830381865afa15801561046e573d6000803e3d6000fd5b505050506040513d601f19601f8201168201806040525081019061049291906113d1565b90506000600760009054906101000a90046001600160a01b03166001600160a01b031663313ce5676040518163ffffffff1660e01b8152600401602060405180830381865afa1580156104e9573d6000803e3d6000fd5b505050506040513d601f19601f8201168201806040525081019061050d91906113ea565b61051b9060ff16600a611507565b6105259086611513565b905060006103e8610537876005611535565b6105419190611513565b905061054d8187611554565b95508583101561057057604051631714cf4f60e01b815260040160405180910390fd5b6007546040516323b872dd60e01b81526001600160a01b03878116600483015230602483015260448201899052909116906323b872dd906064016020604051808303816000875af11580156105c9573d6000803e3d6000fd5b505050506040513d601f19601f820116820180604052508101906105ed919061156c565b5060006105fb836050611535565b61060d90670de0b6b3a7640000611535565b90506106198682610d07565b5050505050505050565b600033610631858285610de6565b61063c858585610e60565b506001949350505050565b60003361037e81858561065a8383610ac9565b6106649190611554565b610be3565b61067161102e565b61067b8282610d07565b5050565b61068761102e565b6106916000611088565b565b6060600480546102ed9061137a565b600033816106b08286610ac9565b9050838110156107155760405162461bcd60e51b815260206004820152602560248201527f45524332303a2064656372656173656420616c6c6f77616e63652062656c6f77604482015264207a65726f60d81b60648201526084015b60405180910390fd5b61063c8286868403610be3565b60003361037e818585610e60565b338161074f5760405163ae6ea4a160e01b815260040160405180910390fd5b3361076d57604051630d37681b60e41b815260040160405180910390fd5b600060088460405161077f91906113b5565b908152604051908190036020019020546001600160a01b03169050806107b8576040516309d3dbeb60e21b815260040160405180910390fd5b600780546001600160a01b0319166001600160a01b03831617905560006107e7670de0b6b3a764000085611513565b6007546040516370a0823160e01b81523060048201529192506000916001600160a01b03909116906370a0823190602401602060405180830381865afa158015610835573d6000803e3d6000fd5b505050506040513d601f19601f8201168201806040525081019061085991906113d1565b90506000610868605084611513565b90506000600760009054906101000a90046001600160a01b03166001600160a01b031663313ce5676040518163ffffffff1660e01b8152600401602060405180830381865afa1580156108bf573d6000803e3d6000fd5b505050506040513d601f19601f820116820180604052508101906108e391906113ea565b6108ee90600a61158e565b6108f89083611535565b90508281111561091b5760405163109ef2f360e21b815260040160405180910390fd5b60006103e861092b896005611535565b6109359190611513565b90506109418189611554565b6040516370a0823160e01b81526001600160a01b0389166004820152909850889030906370a0823190602401602060405180830381865afa15801561098a573d6000803e3d6000fd5b505050506040513d601f19601f820116820180604052508101906109ae91906113d1565b10156109cd576040516360aa395960e01b815260040160405180910390fd5b6040516323b872dd60e01b81526001600160a01b03881660048201523060248201819052604482018a9052906323b872dd906064016020604051808303816000875af1158015610a21573d6000803e3d6000fd5b505050506040513d601f19601f82011682018060405250810190610a45919061156c565b5060075460405163a9059cbb60e01b81526001600160a01b038981166004830152602482018590529091169063a9059cbb906044016020604051808303816000875af1158015610a99573d6000803e3d6000fd5b505050506040513d601f19601f82011682018060405250810190610abd919061156c565b50505050505050505050565b6001600160a01b03918216600090815260016020908152604080832093909416825291909152205490565b610afc61102e565b6001600160a01b038116610b615760405162461bcd60e51b815260206004820152602660248201527f4f776e61626c653a206e6577206f776e657220697320746865207a65726f206160448201526564647265737360d01b606482015260840161070c565b610b6a81611088565b50565b610b7561102e565b6001600160a01b038116301415610b9f57604051638739ebeb60e01b815260040160405180910390fd5b80600883604051610bb091906113b5565b90815260405190819003602001902080546001600160a01b03929092166001600160a01b03199092169190911790555050565b6001600160a01b038316610c455760405162461bcd60e51b8152602060048201526024808201527f45524332303a20617070726f76652066726f6d20746865207a65726f206164646044820152637265737360e01b606482015260840161070c565b6001600160a01b038216610ca65760405162461bcd60e51b815260206004820152602260248201527f45524332303a20617070726f766520746f20746865207a65726f206164647265604482015261737360f01b606482015260840161070c565b6001600160a01b0383811660008181526001602090815260408083209487168084529482529182902085905590518481527f8c5be1e5ebec7d5bd14f71427d1e84f3dd0314c0f7b2291e5b200ac8c7c3b925910160405180910390a3505050565b6001600160a01b038216610d5d5760405162461bcd60e51b815260206004820152601f60248201527f45524332303a206d696e7420746f20746865207a65726f206164647265737300604482015260640161070c565b8060026000828254610d6f9190611554565b90915550506001600160a01b03821660009081526020819052604081208054839290610d9c908490611554565b90915550506040518181526001600160a01b038316906000907fddf252ad1be2c89b69c2b068fc378daa952ba7f163c4a11628f55a4df523b3ef9060200160405180910390a35050565b6000610df28484610ac9565b90506000198114610e5a5781811015610e4d5760405162461bcd60e51b815260206004820152601d60248201527f45524332303a20696e73756666696369656e7420616c6c6f77616e6365000000604482015260640161070c565b610e5a8484848403610be3565b50505050565b6001600160a01b038316610ec45760405162461bcd60e51b815260206004820152602560248201527f45524332303a207472616e736665722066726f6d20746865207a65726f206164604482015264647265737360d81b606482015260840161070c565b6001600160a01b038216610f265760405162461bcd60e51b815260206004820152602360248201527f45524332303a207472616e7366657220746f20746865207a65726f206164647260448201526265737360e81b606482015260840161070c565b6001600160a01b03831660009081526020819052604090205481811015610f9e5760405162461bcd60e51b815260206004820152602660248201527f45524332303a207472616e7366657220616d6f756e7420657863656564732062604482015265616c616e636560d01b606482015260840161070c565b6001600160a01b03808516600090815260208190526040808220858503905591851681529081208054849290610fd5908490611554565b92505081905550826001600160a01b0316846001600160a01b03167fddf252ad1be2c89b69c2b068fc378daa952ba7f163c4a11628f55a4df523b3ef8460405161102191815260200190565b60405180910390a3610e5a565b6005546001600160a01b031633146106915760405162461bcd60e51b815260206004820181905260248201527f4f776e61626c653a2063616c6c6572206973206e6f7420746865206f776e6572604482015260640161070c565b600580546001600160a01b038381166001600160a01b0319831681179093556040519116919082907f8be0079c531659141344cd1fd0a4f28419497f9722a3daafe3b4186f6b6457e090600090a35050565b60005b838110156110f55781810151838201526020016110dd565b83811115610e5a5750506000910152565b60208152600082518060208401526111258160408501602087016110da565b601f01601f19169190910160400192915050565b80356001600160a01b038116811461115057600080fd5b919050565b6000806040838503121561116857600080fd5b61117183611139565b946020939093013593505050565b634e487b7160e01b600052604160045260246000fd5b600082601f8301126111a657600080fd5b813567ffffffffffffffff808211156111c1576111c161117f565b604051601f8301601f19908116603f011681019082821181831017156111e9576111e961117f565b8160405283815286602085880101111561120257600080fd5b836020870160208301376000602085830101528094505050505092915050565b6000806040838503121561123557600080fd5b823567ffffffffffffffff81111561124c57600080fd5b61125885828601611195565b95602094909401359450505050565b60006020828403121561127957600080fd5b813567ffffffffffffffff81111561129057600080fd5b61129c84828501611195565b949350505050565b6000806000606084860312156112b957600080fd5b6112c284611139565b92506112d060208501611139565b9150604084013590509250925092565b6000602082840312156112f257600080fd5b6112fb82611139565b9392505050565b6000806040838503121561131557600080fd5b61131e83611139565b915061132c60208401611139565b90509250929050565b6000806040838503121561134857600080fd5b823567ffffffffffffffff81111561135f57600080fd5b61136b85828601611195565b92505061132c60208401611139565b600181811c9082168061138e57607f821691505b602082108114156113af57634e487b7160e01b600052602260045260246000fd5b50919050565b600082516113c78184602087016110da565b9190910192915050565b6000602082840312156113e357600080fd5b5051919050565b6000602082840312156113fc57600080fd5b815160ff811681146112fb57600080fd5b634e487b7160e01b600052601160045260246000fd5b600181815b8085111561145e5781600019048211156114445761144461140d565b8085161561145157918102915b93841c9390800290611428565b509250929050565b60008261147557506001610384565b8161148257506000610384565b816001811461149857600281146114a2576114be565b6001915050610384565b60ff8411156114b3576114b361140d565b50506001821b610384565b5060208310610133831016604e8410600b84101617156114e1575081810a610384565b6114eb8383611423565b80600019048211156114ff576114ff61140d565b029392505050565b60006112fb8383611466565b60008261153057634e487b7160e01b600052601260045260246000fd5b500490565b600081600019048311821515161561154f5761154f61140d565b500290565b600082198211156115675761156761140d565b500190565b60006020828403121561157e57600080fd5b815180151581146112fb57600080fd5b60006112fb60ff84168361146656fea2646970667358221220f2e677795da26113770c254b086b1c48ac4a1e6920753000c51805a2114e222f64736f6c634300080b0033",
  "immutableReferences": {},
  "source": "// SPDX-License-Identifier: MIT\npragma solidity ^0.8.11.0;\n\nimport \"../node_modules/@openzeppelin/contracts/token/ERC20/ERC20.sol\";\nimport \"../node_modules/@openzeppelin/contracts/access/Ownable.sol\";\nimport \"../node_modules/@openzeppelin/contracts/security/ReentrancyGuard.sol\";\n\ninterface IExchangeToken {\n    function balanceOf(address account) external view returns (uint256);\n    function transferFrom(address from, address to, uint256 amount) external returns (bool);\n    function decimals() external view returns (uint8);\n    function transfer(address to, uint256 amount) external returns (bool);\n}\n\nerror LowExchangeTokenBalance();\nerror InvalidExchangeToken();\nerror MintToZeroAddress();\nerror RedeemToZeroAddress();\nerror MintZeroQuantity();\nerror RedeemZeroQuantity();\nerror AddingOwnAddress();\nerror LowBalanceInContract();\nerror InsufficientBalanceToRedeem();\n\ncontract INRCToken is ERC20, Ownable, ReentrancyGuard {\n    IExchangeToken private ExchangeToken;\n    mapping(string => address) public exchangeTokens;\n\n    constructor() ERC20(\"INRCToken\", \"INRC\") {}\n\n    function mint(address to, uint256 amount) public onlyOwner {\n        _mint(to, amount);\n    }\n\n    /** \n     * Adds a new exchange token(e.g. DUSDC, 0x12D3424BdC7a9FC2f6F9D794810641662967a412)\n     */\n    function addExchangeToken(string memory exchangeTokenName, address exchangeTokenAddress) public onlyOwner {\n        if (exchangeTokenAddress == address(this)) {\n            revert AddingOwnAddress();\n        }\n        exchangeTokens[exchangeTokenName] = exchangeTokenAddress;\n    }\n\n    /**\n     * Function to buy INRC tokens by keeping any exchange coin as collateral\n     * Pre-Conditions:\n     * 1. The exchange token should be present in exchangeTokens mappings. These can be added by the owner only.\n     * 2. User should approve the INRCToken contract to transfer the required amount of particular exchange token\n     */\n    function buy(string memory exchangeTokenName, uint256 exchangeAmount) public {\n        address receiver = msg.sender;\n        if (exchangeAmount == 0) {\n            revert MintZeroQuantity();\n        }\n\n        if (msg.sender == address(0)) {\n            revert MintToZeroAddress();\n        }\n        \n        address exchangeTokenAddress = exchangeTokens[exchangeTokenName];\n        if(exchangeTokenAddress == address(0x0)) {\n            revert InvalidExchangeToken();\n        }\n        ExchangeToken = IExchangeToken(exchangeTokenAddress);\n        uint256 exchangeTokenBalance = ExchangeToken.balanceOf(receiver);\n        \n        uint256 amountWithoutDecimals = exchangeAmount / (10**uint(ExchangeToken.decimals()));\n\n        uint256 transactionFee = exchangeAmount * 5 / 1000;\n        exchangeAmount += transactionFee;\n\n        if(exchangeTokenBalance < exchangeAmount) {\n            revert LowExchangeTokenBalance();\n        }\n\n        ExchangeToken.transferFrom(receiver, address(this), exchangeAmount);\n\n        // The conversion rate of 1:80 can be kept in mappings if more currencies are added\n        uint256 tokensToMint = amountWithoutDecimals * 80 * (10**18);\n        _mint(receiver, tokensToMint);\n    }\n\n    /**\n     * Function to redeem INRC tokens getting back the Collateral\n     * Pre-Conditions:\n     * 1. The exchange token should be present in exchangeTokens mappings. These can be added by the owner only.\n     * 2. User should approve the INRCToken contract to transfer the required amount tokens from user's account to contract\n     */\n    function redeem(string memory exchangeTokenName, uint256 inrcAmount) public {\n        address receiver = msg.sender;\n        if (inrcAmount == 0) {\n            revert RedeemZeroQuantity();\n        }\n\n        if (msg.sender == address(0)) {\n            revert RedeemToZeroAddress();\n        }\n\n        address exchangeTokenAddress = exchangeTokens[exchangeTokenName];\n        if(exchangeTokenAddress == address(0x0)) {\n            revert InvalidExchangeToken();\n        }\n        ExchangeToken = IExchangeToken(exchangeTokenAddress);\n        \n        uint256 inrcAmountWithoutDecimals = inrcAmount / (10 ** 18);\n\n        // Checking exchange token(USDC) balance of contract\n        uint256 contractExchangeTokenBalance = ExchangeToken.balanceOf(address(this));\n        uint256 exchangeTokenAmount = inrcAmountWithoutDecimals / 80;\n        uint256 exchangeTokenAmoutWithDecimals = exchangeTokenAmount * (10 ** ExchangeToken.decimals());\n        \n        if(exchangeTokenAmoutWithDecimals > contractExchangeTokenBalance) {\n            revert LowBalanceInContract();\n        }\n\n        // Calculating amount to charge in INRC with transaction fee + conversion ratio\n        uint256 transactionFee = inrcAmount * 5 / 1000;\n        inrcAmount += transactionFee;\n\n        if(this.balanceOf(receiver) < inrcAmount) {\n            revert InsufficientBalanceToRedeem();\n        }\n\n        this.transferFrom(receiver, address(this), inrcAmount);\n\n        // Transfering exchange token(USDC) back to user\n        ExchangeToken.transfer(receiver, exchangeTokenAmoutWithDecimals);\n    }\n}",
  "sourcePath": "/Users/xception/projects/ASSIGNMENTS/inrc-project/truffle/contracts/INRCToken.sol",
  "compiler": {
    "name": "solc",
    "version": "0.8.11+commit.d7f03943.Emscripten.clang"
  },
  "schemaVersion": "3.4.7",
  "updatedAt": "2022-08-17T05:49:51.390Z",
  "networkType": "ethereum",
  "devdoc": {
    "kind": "dev",
    "methods": {
      "allowance(address,address)": {
        "details": "See {IERC20-allowance}."
      },
      "approve(address,uint256)": {
        "details": "See {IERC20-approve}. NOTE: If `amount` is the maximum `uint256`, the allowance is not updated on `transferFrom`. This is semantically equivalent to an infinite approval. Requirements: - `spender` cannot be the zero address."
      },
      "balanceOf(address)": {
        "details": "See {IERC20-balanceOf}."
      },
      "decimals()": {
        "details": "Returns the number of decimals used to get its user representation. For example, if `decimals` equals `2`, a balance of `505` tokens should be displayed to a user as `5.05` (`505 / 10 ** 2`). Tokens usually opt for a value of 18, imitating the relationship between Ether and Wei. This is the value {ERC20} uses, unless this function is overridden; NOTE: This information is only used for _display_ purposes: it in no way affects any of the arithmetic of the contract, including {IERC20-balanceOf} and {IERC20-transfer}."
      },
      "decreaseAllowance(address,uint256)": {
        "details": "Atomically decreases the allowance granted to `spender` by the caller. This is an alternative to {approve} that can be used as a mitigation for problems described in {IERC20-approve}. Emits an {Approval} event indicating the updated allowance. Requirements: - `spender` cannot be the zero address. - `spender` must have allowance for the caller of at least `subtractedValue`."
      },
      "increaseAllowance(address,uint256)": {
        "details": "Atomically increases the allowance granted to `spender` by the caller. This is an alternative to {approve} that can be used as a mitigation for problems described in {IERC20-approve}. Emits an {Approval} event indicating the updated allowance. Requirements: - `spender` cannot be the zero address."
      },
      "name()": {
        "details": "Returns the name of the token."
      },
      "owner()": {
        "details": "Returns the address of the current owner."
      },
      "renounceOwnership()": {
        "details": "Leaves the contract without owner. It will not be possible to call `onlyOwner` functions anymore. Can only be called by the current owner. NOTE: Renouncing ownership will leave the contract without an owner, thereby removing any functionality that is only available to the owner."
      },
      "symbol()": {
        "details": "Returns the symbol of the token, usually a shorter version of the name."
      },
      "totalSupply()": {
        "details": "See {IERC20-totalSupply}."
      },
      "transfer(address,uint256)": {
        "details": "See {IERC20-transfer}. Requirements: - `to` cannot be the zero address. - the caller must have a balance of at least `amount`."
      },
      "transferFrom(address,address,uint256)": {
        "details": "See {IERC20-transferFrom}. Emits an {Approval} event indicating the updated allowance. This is not required by the EIP. See the note at the beginning of {ERC20}. NOTE: Does not update the allowance if the current allowance is the maximum `uint256`. Requirements: - `from` and `to` cannot be the zero address. - `from` must have a balance of at least `amount`. - the caller must have allowance for ``from``'s tokens of at least `amount`."
      },
      "transferOwnership(address)": {
        "details": "Transfers ownership of the contract to a new account (`newOwner`). Can only be called by the current owner."
      }
    },
    "version": 1
  },
  "userdoc": {
    "kind": "user",
    "methods": {
      "addExchangeToken(string,address)": {
        "notice": "Adds a new exchange token(e.g. DUSDC, 0x12D3424BdC7a9FC2f6F9D794810641662967a412)"
      },
      "buy(string,uint256)": {
        "notice": "Function to buy INRC tokens by keeping any exchange coin as collateral Pre-Conditions: 1. The exchange token should be present in exchangeTokens mappings. These can be added by the owner only. 2. User should approve the INRCToken contract to transfer the required amount of particular exchange token"
      },
      "redeem(string,uint256)": {
        "notice": "Function to redeem INRC tokens getting back the Collateral Pre-Conditions: 1. The exchange token should be present in exchangeTokens mappings. These can be added by the owner only. 2. User should approve the INRCToken contract to transfer the required amount tokens from user's account to contract"
      }
    },
    "version": 1
  }
}