{
  "contractName": "INRCToken",
  "abi": [
    {
      "inputs": [],
      "stateMutability": "nonpayable",
      "type": "constructor"
    },
    {
      "inputs": [],
      "name": "AddingOwnAddress",
      "type": "error"
    },
    {
      "inputs": [],
      "name": "InsufficientBalanceToRedeem",
      "type": "error"
    },
    {
      "inputs": [],
      "name": "InvalidExchangeCurrency",
      "type": "error"
    },
    {
      "inputs": [],
      "name": "LowBalanceInContract",
      "type": "error"
    },
    {
      "inputs": [],
      "name": "LowExchangeCurrencyBalance",
      "type": "error"
    },
    {
      "inputs": [],
      "name": "MintToZeroAddress",
      "type": "error"
    },
    {
      "inputs": [],
      "name": "MintZeroQuantity",
      "type": "error"
    },
    {
      "inputs": [],
      "name": "RedeemToZeroAddress",
      "type": "error"
    },
    {
      "anonymous": false,
      "inputs": [
        {
          "indexed": true,
          "internalType": "address",
          "name": "owner",
          "type": "address"
        },
        {
          "indexed": true,
          "internalType": "address",
          "name": "spender",
          "type": "address"
        },
        {
          "indexed": false,
          "internalType": "uint256",
          "name": "value",
          "type": "uint256"
        }
      ],
      "name": "Approval",
      "type": "event"
    },
    {
      "anonymous": false,
      "inputs": [
        {
          "indexed": true,
          "internalType": "address",
          "name": "previousOwner",
          "type": "address"
        },
        {
          "indexed": true,
          "internalType": "address",
          "name": "newOwner",
          "type": "address"
        }
      ],
      "name": "OwnershipTransferred",
      "type": "event"
    },
    {
      "anonymous": false,
      "inputs": [
        {
          "indexed": true,
          "internalType": "address",
          "name": "from",
          "type": "address"
        },
        {
          "indexed": true,
          "internalType": "address",
          "name": "to",
          "type": "address"
        },
        {
          "indexed": false,
          "internalType": "uint256",
          "name": "value",
          "type": "uint256"
        }
      ],
      "name": "Transfer",
      "type": "event"
    },
    {
      "inputs": [
        {
          "internalType": "address",
          "name": "owner",
          "type": "address"
        },
        {
          "internalType": "address",
          "name": "spender",
          "type": "address"
        }
      ],
      "name": "allowance",
      "outputs": [
        {
          "internalType": "uint256",
          "name": "",
          "type": "uint256"
        }
      ],
      "stateMutability": "view",
      "type": "function"
    },
    {
      "inputs": [
        {
          "internalType": "address",
          "name": "spender",
          "type": "address"
        },
        {
          "internalType": "uint256",
          "name": "amount",
          "type": "uint256"
        }
      ],
      "name": "approve",
      "outputs": [
        {
          "internalType": "bool",
          "name": "",
          "type": "bool"
        }
      ],
      "stateMutability": "nonpayable",
      "type": "function"
    },
    {
      "inputs": [
        {
          "internalType": "address",
          "name": "account",
          "type": "address"
        }
      ],
      "name": "balanceOf",
      "outputs": [
        {
          "internalType": "uint256",
          "name": "",
          "type": "uint256"
        }
      ],
      "stateMutability": "view",
      "type": "function"
    },
    {
      "inputs": [],
      "name": "decimals",
      "outputs": [
        {
          "internalType": "uint8",
          "name": "",
          "type": "uint8"
        }
      ],
      "stateMutability": "view",
      "type": "function"
    },
    {
      "inputs": [
        {
          "internalType": "address",
          "name": "spender",
          "type": "address"
        },
        {
          "internalType": "uint256",
          "name": "subtractedValue",
          "type": "uint256"
        }
      ],
      "name": "decreaseAllowance",
      "outputs": [
        {
          "internalType": "bool",
          "name": "",
          "type": "bool"
        }
      ],
      "stateMutability": "nonpayable",
      "type": "function"
    },
    {
      "inputs": [
        {
          "internalType": "string",
          "name": "",
          "type": "string"
        }
      ],
      "name": "exchangeCurrencies",
      "outputs": [
        {
          "internalType": "address",
          "name": "",
          "type": "address"
        }
      ],
      "stateMutability": "view",
      "type": "function"
    },
    {
      "inputs": [
        {
          "internalType": "address",
          "name": "spender",
          "type": "address"
        },
        {
          "internalType": "uint256",
          "name": "addedValue",
          "type": "uint256"
        }
      ],
      "name": "increaseAllowance",
      "outputs": [
        {
          "internalType": "bool",
          "name": "",
          "type": "bool"
        }
      ],
      "stateMutability": "nonpayable",
      "type": "function"
    },
    {
      "inputs": [],
      "name": "name",
      "outputs": [
        {
          "internalType": "string",
          "name": "",
          "type": "string"
        }
      ],
      "stateMutability": "view",
      "type": "function"
    },
    {
      "inputs": [],
      "name": "owner",
      "outputs": [
        {
          "internalType": "address",
          "name": "",
          "type": "address"
        }
      ],
      "stateMutability": "view",
      "type": "function"
    },
    {
      "inputs": [],
      "name": "renounceOwnership",
      "outputs": [],
      "stateMutability": "nonpayable",
      "type": "function"
    },
    {
      "inputs": [],
      "name": "symbol",
      "outputs": [
        {
          "internalType": "string",
          "name": "",
          "type": "string"
        }
      ],
      "stateMutability": "view",
      "type": "function"
    },
    {
      "inputs": [],
      "name": "totalSupply",
      "outputs": [
        {
          "internalType": "uint256",
          "name": "",
          "type": "uint256"
        }
      ],
      "stateMutability": "view",
      "type": "function"
    },
    {
      "inputs": [
        {
          "internalType": "address",
          "name": "to",
          "type": "address"
        },
        {
          "internalType": "uint256",
          "name": "amount",
          "type": "uint256"
        }
      ],
      "name": "transfer",
      "outputs": [
        {
          "internalType": "bool",
          "name": "",
          "type": "bool"
        }
      ],
      "stateMutability": "nonpayable",
      "type": "function"
    },
    {
      "inputs": [
        {
          "internalType": "address",
          "name": "from",
          "type": "address"
        },
        {
          "internalType": "address",
          "name": "to",
          "type": "address"
        },
        {
          "internalType": "uint256",
          "name": "amount",
          "type": "uint256"
        }
      ],
      "name": "transferFrom",
      "outputs": [
        {
          "internalType": "bool",
          "name": "",
          "type": "bool"
        }
      ],
      "stateMutability": "nonpayable",
      "type": "function"
    },
    {
      "inputs": [
        {
          "internalType": "address",
          "name": "newOwner",
          "type": "address"
        }
      ],
      "name": "transferOwnership",
      "outputs": [],
      "stateMutability": "nonpayable",
      "type": "function"
    },
    {
      "inputs": [
        {
          "internalType": "address",
          "name": "to",
          "type": "address"
        },
        {
          "internalType": "uint256",
          "name": "amount",
          "type": "uint256"
        }
      ],
      "name": "mint",
      "outputs": [],
      "stateMutability": "nonpayable",
      "type": "function"
    },
    {
      "inputs": [
        {
          "internalType": "string",
          "name": "exchangeCurrencyName",
          "type": "string"
        },
        {
          "internalType": "address",
          "name": "exchangeCurrencyAddress",
          "type": "address"
        }
      ],
      "name": "addExchangeCurrency",
      "outputs": [],
      "stateMutability": "nonpayable",
      "type": "function"
    },
    {
      "inputs": [
        {
          "internalType": "string",
          "name": "exchangeCurrencyName",
          "type": "string"
        },
        {
          "internalType": "uint256",
          "name": "amount",
          "type": "uint256"
        }
      ],
      "name": "buy",
      "outputs": [],
      "stateMutability": "nonpayable",
      "type": "function"
    },
    {
      "inputs": [
        {
          "internalType": "string",
          "name": "exchangeCurrencyName",
          "type": "string"
        },
        {
          "internalType": "uint256",
          "name": "amount",
          "type": "uint256"
        }
      ],
      "name": "redeem",
      "outputs": [],
      "stateMutability": "nonpayable",
      "type": "function"
    }
  ],
  "bytecode": "0x60806040523480156200001157600080fd5b50604080518082018252600981526824a72921aa37b5b2b760b91b602080830191825283518085019094526004845263494e524360e01b9084015281519192916200005f91600391620000f3565b50805162000075906004906020840190620000f3565b505050620000926200008c6200009d60201b60201c565b620000a1565b6001600655620001d6565b3390565b600580546001600160a01b038381166001600160a01b0319831681179093556040519116919082907f8be0079c531659141344cd1fd0a4f28419497f9722a3daafe3b4186f6b6457e090600090a35050565b828054620001019062000199565b90600052602060002090601f01602090048101928262000125576000855562000170565b82601f106200014057805160ff191683800117855562000170565b8280016001018555821562000170579182015b828111156200017057825182559160200191906001019062000153565b506200017e92915062000182565b5090565b5b808211156200017e576000815560010162000183565b600181811c90821680620001ae57607f821691505b60208210811415620001d057634e487b7160e01b600052602260045260246000fd5b50919050565b6115ba80620001e66000396000f3fe608060405234801561001057600080fd5b50600436106101215760003560e01c806370a08231116100ad578063a9059cbb11610071578063a9059cbb1461025a578063b1b86b131461026d578063dd62ed3e14610280578063dfabd21214610293578063f2fde38b146102c757600080fd5b806370a08231146101e9578063715018a6146102125780638da5cb5b1461021a57806395d89b411461023f578063a457c2d71461024757600080fd5b806323b872dd116100f457806323b872dd1461018e578063313ce567146101a157806339509351146101b057806340c10f19146101c35780634a0f5082146101d657600080fd5b806306fdde0314610126578063095ea7b3146101445780630ca5c5041461016757806318160ddd1461017c575b600080fd5b61012e6102da565b60405161013b91906110f9565b60405180910390f35b610157610152366004611148565b61036c565b604051901515815260200161013b565b61017a610175366004611215565b610386565b005b6002545b60405190815260200161013b565b61015761019c36600461125a565b610624565b6040516012815260200161013b565b6101576101be366004611148565b610648565b61017a6101d1366004611148565b61066a565b61017a6101e4366004611296565b610680565b6101806101f73660046112e4565b6001600160a01b031660009081526020819052604090205490565b61017a6106f6565b6005546001600160a01b03165b6040516001600160a01b03909116815260200161013b565b61012e61070a565b610157610255366004611148565b610719565b610157610268366004611148565b610799565b61017a61027b366004611215565b6107a7565b61018061028e366004611306565b610b32565b6102276102a1366004611330565b80516020818301810180516008825292820191909301209152546001600160a01b031681565b61017a6102d53660046112e4565b610b5d565b6060600380546102e99061136d565b80601f01602080910402602001604051908101604052809291908181526020018280546103159061136d565b80156103625780601f1061033757610100808354040283529160200191610362565b820191906000526020600020905b81548152906001019060200180831161034557829003601f168201915b5050505050905090565b60003361037a818585610bd6565b60019150505b92915050565b33816103a55760405163b562e8dd60e01b815260040160405180910390fd5b336103c257604051622e076360e81b815260040160405180910390fd5b600082905060006008856040516103d991906113a8565b908152604051908190036020019020546001600160a01b0316905080610412576040516387d265b760e01b815260040160405180910390fd5b600780546001600160a01b0319166001600160a01b038381169182179092556040516370a0823160e01b815291851660048301526000916370a0823190602401602060405180830381865afa15801561046f573d6000803e3d6000fd5b505050506040513d601f19601f8201168201806040525081019061049391906113c4565b90506000600760009054906101000a90046001600160a01b03166001600160a01b031663313ce5676040518163ffffffff1660e01b8152600401602060405180830381865afa1580156104ea573d6000803e3d6000fd5b505050506040513d601f19601f8201168201806040525081019061050e91906113dd565b905061051b81600a6114fa565b6105259087611509565b955060006103e8610537886005611509565b6105419190611528565b905061054d818861154a565b96508683101561057057604051638d00d46f60e01b815260040160405180910390fd5b6007546040516323b872dd60e01b81526001600160a01b038881166004830152306024830152604482018a9052909116906323b872dd906064016020604051808303816000875af11580156105c9573d6000803e3d6000fd5b505050506040513d601f19601f820116820180604052508101906105ed9190611562565b5060006105fb866050611509565b61060d90670de0b6b3a7640000611509565b90506106198782610cfa565b505050505050505050565b600033610632858285610dd9565b61063d858585610e53565b506001949350505050565b60003361037a81858561065b8383610b32565b610665919061154a565b610bd6565b610672611021565b61067c8282610cfa565b5050565b610688611021565b6001600160a01b0381163014156106b257604051638739ebeb60e01b815260040160405180910390fd5b806008836040516106c391906113a8565b90815260405190819003602001902080546001600160a01b03929092166001600160a01b03199092169190911790555050565b6106fe611021565b610708600061107b565b565b6060600480546102e99061136d565b600033816107278286610b32565b90508381101561078c5760405162461bcd60e51b815260206004820152602560248201527f45524332303a2064656372656173656420616c6c6f77616e63652062656c6f77604482015264207a65726f60d81b60648201526084015b60405180910390fd5b61063d8286868403610bd6565b60003361037a818585610e53565b33816107c65760405163b562e8dd60e01b815260040160405180910390fd5b336107e457604051630d37681b60e41b815260040160405180910390fd5b60006008846040516107f691906113a8565b908152604051908190036020019020546001600160a01b031690508061082f576040516387d265b760e01b815260040160405180910390fd5b600780546001600160a01b0319166001600160a01b0383169081179091556040516370a0823160e01b8152306004820152600091906370a0823190602401602060405180830381865afa15801561088a573d6000803e3d6000fd5b505050506040513d601f19601f820116820180604052508101906108ae91906113c4565b90506000600760009054906101000a90046001600160a01b03166001600160a01b031663313ce5676040518163ffffffff1660e01b8152600401602060405180830381865afa158015610905573d6000803e3d6000fd5b505050506040513d601f19601f8201168201806040525081019061092991906113dd565b61093490600a6114fa565b61093e9086611509565b9050818111156109615760405163109ef2f360e21b815260040160405180910390fd5b61096c856050611509565b61097e90670de0b6b3a7640000611509565b945060006103e8610990876005611509565b61099a9190611528565b90506109a6818761154a565b6040516370a0823160e01b81526001600160a01b0387166004820152909650869030906370a0823190602401602060405180830381865afa1580156109ef573d6000803e3d6000fd5b505050506040513d601f19601f82011682018060405250810190610a1391906113c4565b1015610a32576040516360aa395960e01b815260040160405180910390fd5b6040516323b872dd60e01b81526001600160a01b0386166004820152306024820181905260448201889052906323b872dd906064016020604051808303816000875af1158015610a86573d6000803e3d6000fd5b505050506040513d601f19601f82011682018060405250810190610aaa9190611562565b506007546040516323b872dd60e01b81523060048201526001600160a01b03878116602483015260448201859052909116906323b872dd906064016020604051808303816000875af1158015610b04573d6000803e3d6000fd5b505050506040513d601f19601f82011682018060405250810190610b289190611562565b5050505050505050565b6001600160a01b03918216600090815260016020908152604080832093909416825291909152205490565b610b65611021565b6001600160a01b038116610bca5760405162461bcd60e51b815260206004820152602660248201527f4f776e61626c653a206e6577206f776e657220697320746865207a65726f206160448201526564647265737360d01b6064820152608401610783565b610bd38161107b565b50565b6001600160a01b038316610c385760405162461bcd60e51b8152602060048201526024808201527f45524332303a20617070726f76652066726f6d20746865207a65726f206164646044820152637265737360e01b6064820152608401610783565b6001600160a01b038216610c995760405162461bcd60e51b815260206004820152602260248201527f45524332303a20617070726f766520746f20746865207a65726f206164647265604482015261737360f01b6064820152608401610783565b6001600160a01b0383811660008181526001602090815260408083209487168084529482529182902085905590518481527f8c5be1e5ebec7d5bd14f71427d1e84f3dd0314c0f7b2291e5b200ac8c7c3b925910160405180910390a3505050565b6001600160a01b038216610d505760405162461bcd60e51b815260206004820152601f60248201527f45524332303a206d696e7420746f20746865207a65726f2061646472657373006044820152606401610783565b8060026000828254610d62919061154a565b90915550506001600160a01b03821660009081526020819052604081208054839290610d8f90849061154a565b90915550506040518181526001600160a01b038316906000907fddf252ad1be2c89b69c2b068fc378daa952ba7f163c4a11628f55a4df523b3ef9060200160405180910390a35050565b6000610de58484610b32565b90506000198114610e4d5781811015610e405760405162461bcd60e51b815260206004820152601d60248201527f45524332303a20696e73756666696369656e7420616c6c6f77616e63650000006044820152606401610783565b610e4d8484848403610bd6565b50505050565b6001600160a01b038316610eb75760405162461bcd60e51b815260206004820152602560248201527f45524332303a207472616e736665722066726f6d20746865207a65726f206164604482015264647265737360d81b6064820152608401610783565b6001600160a01b038216610f195760405162461bcd60e51b815260206004820152602360248201527f45524332303a207472616e7366657220746f20746865207a65726f206164647260448201526265737360e81b6064820152608401610783565b6001600160a01b03831660009081526020819052604090205481811015610f915760405162461bcd60e51b815260206004820152602660248201527f45524332303a207472616e7366657220616d6f756e7420657863656564732062604482015265616c616e636560d01b6064820152608401610783565b6001600160a01b03808516600090815260208190526040808220858503905591851681529081208054849290610fc890849061154a565b92505081905550826001600160a01b0316846001600160a01b03167fddf252ad1be2c89b69c2b068fc378daa952ba7f163c4a11628f55a4df523b3ef8460405161101491815260200190565b60405180910390a3610e4d565b6005546001600160a01b031633146107085760405162461bcd60e51b815260206004820181905260248201527f4f776e61626c653a2063616c6c6572206973206e6f7420746865206f776e65726044820152606401610783565b600580546001600160a01b038381166001600160a01b0319831681179093556040519116919082907f8be0079c531659141344cd1fd0a4f28419497f9722a3daafe3b4186f6b6457e090600090a35050565b60005b838110156110e85781810151838201526020016110d0565b83811115610e4d5750506000910152565b60208152600082518060208401526111188160408501602087016110cd565b601f01601f19169190910160400192915050565b80356001600160a01b038116811461114357600080fd5b919050565b6000806040838503121561115b57600080fd5b6111648361112c565b946020939093013593505050565b634e487b7160e01b600052604160045260246000fd5b600082601f83011261119957600080fd5b813567ffffffffffffffff808211156111b4576111b4611172565b604051601f8301601f19908116603f011681019082821181831017156111dc576111dc611172565b816040528381528660208588010111156111f557600080fd5b836020870160208301376000602085830101528094505050505092915050565b6000806040838503121561122857600080fd5b823567ffffffffffffffff81111561123f57600080fd5b61124b85828601611188565b95602094909401359450505050565b60008060006060848603121561126f57600080fd5b6112788461112c565b92506112866020850161112c565b9150604084013590509250925092565b600080604083850312156112a957600080fd5b823567ffffffffffffffff8111156112c057600080fd5b6112cc85828601611188565b9250506112db6020840161112c565b90509250929050565b6000602082840312156112f657600080fd5b6112ff8261112c565b9392505050565b6000806040838503121561131957600080fd5b6113228361112c565b91506112db6020840161112c565b60006020828403121561134257600080fd5b813567ffffffffffffffff81111561135957600080fd5b61136584828501611188565b949350505050565b600181811c9082168061138157607f821691505b602082108114156113a257634e487b7160e01b600052602260045260246000fd5b50919050565b600082516113ba8184602087016110cd565b9190910192915050565b6000602082840312156113d657600080fd5b5051919050565b6000602082840312156113ef57600080fd5b815160ff811681146112ff57600080fd5b634e487b7160e01b600052601160045260246000fd5b600181815b8085111561145157816000190482111561143757611437611400565b8085161561144457918102915b93841c939080029061141b565b509250929050565b60008261146857506001610380565b8161147557506000610380565b816001811461148b5760028114611495576114b1565b6001915050610380565b60ff8411156114a6576114a6611400565b50506001821b610380565b5060208310610133831016604e8410600b84101617156114d4575081810a610380565b6114de8383611416565b80600019048211156114f2576114f2611400565b029392505050565b60006112ff60ff841683611459565b600081600019048311821515161561152357611523611400565b500290565b60008261154557634e487b7160e01b600052601260045260246000fd5b500490565b6000821982111561155d5761155d611400565b500190565b60006020828403121561157457600080fd5b815180151581146112ff57600080fdfea26469706673582212209ec5f104f0d8420843409917efe5120f417315cb2c2e38e7dd680c19e79a871064736f6c634300080b0033",
  "immutableReferences": {},
  "source": "// SPDX-License-Identifier: MIT\npragma solidity ^0.8.11.0;\n\nimport \"../node_modules/@openzeppelin/contracts/token/ERC20/ERC20.sol\";\nimport \"../node_modules/@openzeppelin/contracts/access/Ownable.sol\";\nimport \"../node_modules/@openzeppelin/contracts/security/ReentrancyGuard.sol\";\n\ninterface IExchangeCurrency {\n    function balanceOf(address account) external view returns (uint256);\n    function transferFrom(address from, address to, uint256 amount) external returns (bool);\n    function decimals() external view returns (uint8);\n}\n\nerror LowExchangeCurrencyBalance();\nerror InvalidExchangeCurrency();\nerror MintToZeroAddress();\nerror RedeemToZeroAddress();\nerror MintZeroQuantity();\nerror AddingOwnAddress();\nerror LowBalanceInContract();\nerror InsufficientBalanceToRedeem();\n\ncontract INRCToken is ERC20, Ownable, ReentrancyGuard {\n    IExchangeCurrency private ExchangeCurrency;\n    mapping(string => address) public exchangeCurrencies;\n\n    constructor() ERC20(\"INRCToken\", \"INRC\") {}\n\n    function mint(address to, uint256 amount) public onlyOwner {\n        _mint(to, amount);\n    }\n\n    /** \n     * Adds a new exchange currency(e.g. DUSDC, 0x12D3424BdC7a9FC2f6F9D794810641662967a412)\n     */\n    function addExchangeCurrency(string memory exchangeCurrencyName, address exchangeCurrencyAddress) public onlyOwner {\n        if (exchangeCurrencyAddress == address(this)) {\n            revert AddingOwnAddress();\n        }\n        exchangeCurrencies[exchangeCurrencyName] = exchangeCurrencyAddress;\n    }\n\n    function buy(string memory exchangeCurrencyName, uint256 amount) public {\n        address receiver = msg.sender;\n        if (amount == 0) {\n            revert MintZeroQuantity();\n        }\n\n        if (msg.sender == address(0)) {\n            revert MintToZeroAddress();\n        }\n\n        uint256 amountWithoutDecimals = amount;\n        address exchangeCurrencyAddress = exchangeCurrencies[exchangeCurrencyName];\n        if(exchangeCurrencyAddress == address(0x0)) {\n            revert InvalidExchangeCurrency();\n        }\n        ExchangeCurrency = IExchangeCurrency(exchangeCurrencyAddress);\n        uint256 exchangeCurrencyBalance = ExchangeCurrency.balanceOf(receiver);\n\n        // This is added so that there is no mistake from caller end in putting decimals\n        uint8 exchangeCurrencyDecimals = ExchangeCurrency.decimals();\n\n        amount = amount * (10 ** exchangeCurrencyDecimals);\n        uint256 transactionFee = amount * 5 / 1000;\n        amount = amount + transactionFee;\n\n        if(exchangeCurrencyBalance < amount) {\n            revert LowExchangeCurrencyBalance();\n        }\n\n        ExchangeCurrency.transferFrom(receiver, address(this), amount);\n\n        // The conversion rate of 1:80 can be kept in mappings if more currencies are added\n        uint256 tokensToMint = amountWithoutDecimals * 80 * (10 ** 18);\n        _mint(receiver, tokensToMint);\n    }\n\n    function redeem(string memory exchangeCurrencyName, uint256 amount) public {\n        address receiver = msg.sender;\n        if (amount == 0) {\n            revert MintZeroQuantity();\n        }\n\n        if (msg.sender == address(0)) {\n            revert RedeemToZeroAddress();\n        }\n\n        address exchangeCurrencyAddress = exchangeCurrencies[exchangeCurrencyName];\n        if(exchangeCurrencyAddress == address(0x0)) {\n            revert InvalidExchangeCurrency();\n        }\n        ExchangeCurrency = IExchangeCurrency(exchangeCurrencyAddress);\n\n        // Checking exchange currency(USDC) balance of contract\n        uint256 contractExchangeCurrencyBalance = ExchangeCurrency.balanceOf(address(this));\n        uint256 exchangeCurrencyAmount = amount * (10 ** ExchangeCurrency.decimals());\n        \n        if(exchangeCurrencyAmount > contractExchangeCurrencyBalance) {\n            revert LowBalanceInContract();\n        }\n\n        // Calculating amount to charge in INRC with transaction fee + conversion ratio\n        amount = amount * 80 * (10 ** 18);\n        uint256 transactionFee = amount * 5 / 1000;\n        amount += transactionFee;\n\n        // Checking INRC balance of user and transferring it back to contract if available\n        // Transfer from receiver to contract will require the user to approve the contract\n        if(this.balanceOf(receiver) < amount) {\n            revert InsufficientBalanceToRedeem();\n        }\n        this.transferFrom(receiver, address(this), amount);\n\n        // Transfering exchange currency(USDC) back to user\n        ExchangeCurrency.transferFrom(address(this), receiver, exchangeCurrencyAmount);\n    }\n}",
  "sourcePath": "/Users/xception/projects/ASSIGNMENTS/inrc-project/truffle/contracts/INRCToken.sol",
  "compiler": {
    "name": "solc",
    "version": "0.8.11+commit.d7f03943.Emscripten.clang"
  },
  "schemaVersion": "3.4.7",
  "updatedAt": "2022-08-15T18:38:21.140Z",
  "devdoc": {
    "kind": "dev",
    "methods": {
      "allowance(address,address)": {
        "details": "See {IERC20-allowance}."
      },
      "approve(address,uint256)": {
        "details": "See {IERC20-approve}. NOTE: If `amount` is the maximum `uint256`, the allowance is not updated on `transferFrom`. This is semantically equivalent to an infinite approval. Requirements: - `spender` cannot be the zero address."
      },
      "balanceOf(address)": {
        "details": "See {IERC20-balanceOf}."
      },
      "decimals()": {
        "details": "Returns the number of decimals used to get its user representation. For example, if `decimals` equals `2`, a balance of `505` tokens should be displayed to a user as `5.05` (`505 / 10 ** 2`). Tokens usually opt for a value of 18, imitating the relationship between Ether and Wei. This is the value {ERC20} uses, unless this function is overridden; NOTE: This information is only used for _display_ purposes: it in no way affects any of the arithmetic of the contract, including {IERC20-balanceOf} and {IERC20-transfer}."
      },
      "decreaseAllowance(address,uint256)": {
        "details": "Atomically decreases the allowance granted to `spender` by the caller. This is an alternative to {approve} that can be used as a mitigation for problems described in {IERC20-approve}. Emits an {Approval} event indicating the updated allowance. Requirements: - `spender` cannot be the zero address. - `spender` must have allowance for the caller of at least `subtractedValue`."
      },
      "increaseAllowance(address,uint256)": {
        "details": "Atomically increases the allowance granted to `spender` by the caller. This is an alternative to {approve} that can be used as a mitigation for problems described in {IERC20-approve}. Emits an {Approval} event indicating the updated allowance. Requirements: - `spender` cannot be the zero address."
      },
      "name()": {
        "details": "Returns the name of the token."
      },
      "owner()": {
        "details": "Returns the address of the current owner."
      },
      "renounceOwnership()": {
        "details": "Leaves the contract without owner. It will not be possible to call `onlyOwner` functions anymore. Can only be called by the current owner. NOTE: Renouncing ownership will leave the contract without an owner, thereby removing any functionality that is only available to the owner."
      },
      "symbol()": {
        "details": "Returns the symbol of the token, usually a shorter version of the name."
      },
      "totalSupply()": {
        "details": "See {IERC20-totalSupply}."
      },
      "transfer(address,uint256)": {
        "details": "See {IERC20-transfer}. Requirements: - `to` cannot be the zero address. - the caller must have a balance of at least `amount`."
      },
      "transferFrom(address,address,uint256)": {
        "details": "See {IERC20-transferFrom}. Emits an {Approval} event indicating the updated allowance. This is not required by the EIP. See the note at the beginning of {ERC20}. NOTE: Does not update the allowance if the current allowance is the maximum `uint256`. Requirements: - `from` and `to` cannot be the zero address. - `from` must have a balance of at least `amount`. - the caller must have allowance for ``from``'s tokens of at least `amount`."
      },
      "transferOwnership(address)": {
        "details": "Transfers ownership of the contract to a new account (`newOwner`). Can only be called by the current owner."
      }
    },
    "version": 1
  },
  "userdoc": {
    "kind": "user",
    "methods": {
      "addExchangeCurrency(string,address)": {
        "notice": "Adds a new exchange currency(e.g. DUSDC, 0x12D3424BdC7a9FC2f6F9D794810641662967a412)"
      }
    },
    "version": 1
  }
}